:100000000C945D000C9485000C9485000C94850084
:100010000C9485000C9485000C9485000C9485004C
:100020000C9485000C9485000C9485000C9485003C
:100030000C9485000C9485000C9485000C9485002C
:100040000C94E5030C9485000C94B3030C948D037D
:100050000C9485000C9485000C9485000C9485000C
:100060000C9485000C94850000000008000201003B
:100070000003040700000000000000000000000072
:10008000250028002B0000000000240027002A0083
:10009000040404040404040402020202020203032E
:1000A0000303030301020408102040800102040836
:1000B00010200102040810202F0411241FBECFEFCE
:1000C000D8E0DEBFCDBF11E0A0E0B1E0EAE4F6E1A8
:1000D00002C005900D92A835B107D9F722E0A8E536
:1000E000B1E001C01D92A237B207E1F710E0CDE503
:1000F000D0E004C02197FE010E941D0BCC35D10732
:10010000C9F70E947A040C94230B0C94000090E031
:10011000FC01EC55FF4F249180579F4FFC018491C7
:10012000882399F090E0880F991FFC01EA57FF4F50
:10013000A591B491FC01E458FF4F859194918FB73C
:10014000F894EC91E22BEC938FBF0895FC01538D52
:10015000448D252F30E0842F90E0821B930B5417A1
:1001600010F0CF96089501970895FC01918D828D2E
:10017000981761F0A28DAE0FBF2FB11D5D968C91C7
:10018000928D9F5F9F73928F90E008958FEF9FEF06
:100190000895FC01918D828D981731F0828DE80FC2
:1001A000F11D858D90E008958FEF9FEF0895FC017C
:1001B000918D228D892F90E0805C9F4F821B910949
:1001C0008F7399270895FC01A48DA80FB92FB11D35
:1001D000A35ABF4F2C91848D90E001968F7399277D
:1001E000848FA689B7892C93A089B1898C9183705B
:1001F00080648C93938D848D981306C00288F38954
:10020000E02D80818F7D80830895EF92FF920F9380
:100210001F93CF93DF93EC0181E0888F9B8D8C8DB2
:1002200098131AC0E889F989808185FF15C09FB7A6
:10023000F894EE89FF896083E889F9898081837069
:10024000806480839FBF81E090E0DF91CF911F9118
:100250000F91FF90EF900895F62E0B8D10E00F5F39
:100260001F4F0F731127E02E8C8D8E110CC00FB60F
:1002700007FCFACFE889F989808185FFF5CFCE01A7
:100280000E94E300F1CFEB8DEC0FFD2FF11DE35A3F
:10029000FF4FF0829FB7F8940B8FEA89FB8980812A
:1002A0008062CFCFCF93DF93EC01888D8823B9F0A4
:1002B000AA89BB89E889F9898C9185FD03C0808171
:1002C00086FD0DC00FB607FCF7CF8C9185FFF2CFEE
:1002D000808185FFEDCFCE010E94E300E9CFDF9161
:1002E000CF9108958DEB91E00E94D70021E0892BFA
:1002F00009F420E0822F089580E090E0892B29F016
:100300000E94720181110C9400000895AF92BF9277
:10031000CF92DF92EF92FF920F931F93CF93DF93D1
:100320006C017B018B01040F151FEB015E01AE1800
:10033000BF08C017D10759F06991D601ED91FC9122
:100340000190F081E02DC6010995892B79F7C5014F
:10035000DF91CF911F910F91FF90EF90DF90CF90A1
:10036000BF90AF90089590E0FC01E859FF4F2491B1
:10037000FC01EC55FF4F3491FC01E057FF4FE49135
:10038000EE23C9F0222339F0233001F1A8F4213003
:1003900019F1223029F1F0E0EE0FFF1FE458FF4F72
:1003A000A591B4918FB7F894EC91611126C0309566
:1003B0003E233C938FBF08952730A9F02830C9F021
:1003C000243049F7809180008F7D03C080918000A8
:1003D0008F7780938000DFCF84B58F7784BDDBCFAC
:1003E00084B58F7DFBCF8091B0008F778093B00074
:1003F000D2CF8091B0008F7DF9CF3E2BDACF8E30F7
:1004000008F08E508770806480937C0080917A0021
:10041000806480937A0080917A0086FDFCCF809181
:1004200078009091790008953FB7F8948091590130
:1004300090915A01A0915B01B0915C0126B5A89BF7
:1004400005C02F3F19F00196A11DB11D3FBFBA2F66
:10045000A92F982F8827BC01CD01620F711D811D26
:10046000911D42E0660F771F881F991F4A95D1F7AB
:100470000895089590E080E00895FC010190002027
:10048000E9F73197AF01481B590BBC018AE592E0AF
:100490000C948601CF93DF93EC0160E08E810E9483
:1004A000B30161E08E810E94B30160E08E810E9401
:1004B000B3018BE891E00197F1F7DF91CF910895B7
:1004C000CF92DF92EF92FF920F931F93CF93DF9320
:1004D0006C017C0187E0E80EF11CD0E0C0E0062F43
:1004E00010E0B8010C2E02C0759567950A94E2F7EA
:1004F0006170F70181917F010E94B3012196C430A0
:10050000D10579F7C601DF91CF911F910F91FF902F
:10051000EF90DF90CF900C944A02CF92DF92EF924F
:10052000FF920F931F93CF93DF93EC01F62E642F6E
:100530008C810E94B3018D818F3F19F060E00E9491
:10054000B3010F2D10E08F8584FF25C06E0187E079
:10055000C80ED11CF12CE12CB8010E2C02C07595EF
:1005600067950A94E2F76170F60181916F010E942C
:10057000B301FFEFEF1AFF0A88E0E816F10461F714
:10058000CE01DF91CF911F910F91FF90EF90DF90FF
:10059000CF900C944A02B80184E0759567958A95CE
:1005A000E1F7CE010E9460026F2DCE01DF91CF9165
:1005B0001F910F91FF90EF90DF90CF900C9460020D
:1005C00040E0682F8AE592E00C948D02CF93DF9390
:1005D000613029F09091690298609093690260936C
:1005E0006D0210926E0290E490936F0280937002FD
:1005F000805C8093710280915E020E9487008091EE
:100600005F028F3F11F00E948700809160020E947C
:100610008700CAE5D2E09E012A55324080916902E6
:1006200084FD0AC084E090E02196281739073CF445
:100630008E810E948700EFCF88E090E0F5CF8BE3BA
:100640009DE00197F1F760E080915E020E94B301A6
:1006500060E0809160020E94B30180915F028F3F51
:1006600019F060E00E94B3018091690284FD39C0F5
:1006700063E08AE592E00E946002CBE4D6E4CE011A
:100680000197F1F763E08AE592E00E94600221970A
:10069000F1F763E08AE592E00E94600283E592E070
:1006A0000197F1F762E08AE592E00E946002809192
:1006B000690280620E94E00284E080936A028CE01A
:1006C0000E94E00281E00E94E0028BE39FE101973B
:1006D000F1F782E080936B0286E0DF91CF910C947A
:1006E000E00280620E94E0028BE496E40197F1F759
:1006F0008091690280620E94E00283E592E00197A6
:10070000F1F78091690280620E94E002D0CF41E05F
:100710000E948D0281E090E008951F920F920FB623
:100720000F9211242F933F934F935F936F937F9377
:100730008F939F93AF93BF93EF93FF938DEB91E0D4
:100740000E94E300FF91EF91BF91AF919F918F9134
:100750007F916F915F914F913F912F910F900FBEBD
:100760000F901F9018951F920F920FB60F921124A1
:100770002F938F939F93EF93FF93E091CD01F0918F
:10078000CE018081E091D301F091D40182FD1BC0A4
:1007900090818091D6018F5F8F732091D70182174E
:1007A00041F0E091D601F0E0E354FE4F958F809345
:1007B000D601FF91EF919F918F912F910F900FBED6
:1007C0000F901F9018958081F4CF1F920F920FB653
:1007D0000F9211242F933F938F939F93AF93BF93C7
:1007E00080915D0190915E01A0915F01B0916001E7
:1007F0003091580123E0230F2D3758F50196A11DA4
:10080000B11D2093580180935D0190935E01A093E8
:100810005F01B09360018091590190915A01A091BC
:100820005B01B0915C010196A11DB11D809359013E
:1008300090935A01A0935B01B0935C01BF91AF917B
:100840009F918F913F912F910F900FBE0F901F900E
:10085000189526E8230F0296A11DB11DD2CFEDEB0E
:10086000F1E01382128288EE93E0A0E0B0E084838E
:100870009583A683B78384E091E09183808385ECA0
:1008800090E09587848784EC90E09787868780EC5A
:1008900090E0918B808B81EC90E0938B828B82EC4B
:1008A00090E0958B848B86EC90E0978B868B118EF5
:1008B000128E138E148EEAE5F2E01382128286E124
:1008C00091E0918380838DE084838FEF85838CE03A
:1008D00086838BE087838AE0808789E0818788E050
:1008E00082871386148615861686178661E080E156
:1008F0000C94E602CF93DF93CDB7DEB7AD970FB67A
:10090000F894DEBF0FBECDBF789484B5826084BDFD
:1009100084B5816084BD85B5826085BD85B5816003
:1009200085BD80916E00816080936E001092810081
:10093000809181008260809381008091810081603C
:1009400080938100809180008160809380008091FD
:10095000B10084608093B1008091B0008160809389
:10096000B00080917A00846080937A0080917A0050
:10097000826080937A0080917A00816080937A000F
:1009800080917A00806880937A001092C1008EE096
:1009900090E090937601809375018DE79FE3AAE440
:1009A000B3E48093790190937A01A0937B01B09393
:1009B0007C018AE999E9A9EDBFE3809381019093D5
:1009C0008201A0938301B093840180E090E0A0E0D5
:1009D000B4E48093950190939601A0939701B0930E
:1009E000980164E084E10E94E602E1E080916D02FA
:1009F0008111E0E0E195F0E0E65AFD4F84898068DE
:100A00000E94E0028EE191E00E943D022EE42093DC
:100A10007C000E9414026B017C0132E0832E912C39
:100A2000A12CB12C0E9414026C197D098E099F091A
:100A3000683E734081059105A8F338EEC30E33E09C
:100A4000D31EE11CF11C8A9489288A288B2829F05E
:100A5000812C912C54018394E5CF80917A0080649D
:100A600080937A0080917A0086FDFCCF8091780097
:100A70002091790030E0322F2227032E000C440B06
:100A8000550B282B60E070E381E190E00E94FE0AA4
:100A90002AA73BA74CA75DA78FB7F89480905D016C
:100AA00090905E01A0905F01B09060018FBF809137
:100AB00075010E94FF019093BA018093B901BC01B6
:100AC000990F880B990B0E945F096B017C012DEC3B
:100AD0003CEC4CE054E40E94B00887FF0BC011E0EE
:100AE00026E636E646EE53E4C701B6010E940F0A39
:100AF00018160CF010E02FB7F89480915D019091DA
:100B00005E01A0915F01B09160012FBF8819990922
:100B1000AA09BB09813D9740A105B10510F4112335
:100B200031F28FB7F89420915D0130915E014091D0
:100B30005F01509160012EA33FA348A759A78FBF23
:100B400010E000E0312C212C2FB7F89480915D014A
:100B500090915E01A0915F01B09160012FBF2EA125
:100B60003FA148A559A5821B930BA40BB50B803D53
:100B70009740A105B10508F043C10F5F1F4F809159
:100B80008D0190918E01A0918F01B0919001809381
:100B9000890190938A01A0938B01B0938C0180917D
:100BA00075010E94FF0190938601809385018091D9
:100BB00077010E94FF017C01909388018093870157
:100BC0004090950150909601609097017090980127
:100BD00080918501909186019BA38AA3BC01990F06
:100BE000880B990B0E945F094B015C01A3019201E4
:100BF0000E94430820E030E040E85AE30E94140AD3
:100C0000A30192010E9444089B01AC01209395012D
:100C1000309396014093970150939801C501B40118
:100C20000E9443084B015C0180928D0190928E01DD
:100C3000A0928F01B09290014090990150909A013A
:100C400060909B0170909C01B701FF0C880B990B81
:100C50000E945F096B017C01A30192010E9443087D
:100C600020E030E040E85AE30E94140AA301920118
:100C70000E9444089B01AC012093990130939A0192
:100C800040939B0150939C01C701B6010E94430809
:100C90006B017C01C0929101D0929201E09293018C
:100CA000F0929401A5019401C501B4010E94140AB7
:100CB0009B01AC012093A1013093A2014093A301B9
:100CC0005093A4016091A5017091A6018091A701A4
:100CD0009091A8010E9444086093A5017093A60119
:100CE0008093A7019093A801A7019601C701B601BF
:100CF0000E94140A9B01AC012093A9013093AA0120
:100D00004093AB015093AC016091AD017091AE0185
:100D10008091AF019091B0010E9444086093AD01B1
:100D20007093AE018093AF019093B0014090890120
:100D300050908A0160908B0170908C01A301920108
:100D4000C501B4010E9443082091810130918201C4
:100D500040918301509184010E94140AA3019201E1
:100D60000E9444089B01AC0120939D0130939E0199
:100D700040939F015093A001C701B6010E94140A3D
:100D80009B01AC012093B1013093B2014093B301B8
:100D90005093B4016091B5017091B6018091B70193
:100DA0009091B8010E9444086093B5017093B60118
:100DB0008093B7019093B8018091BC018093BB01EF
:100DC0008091B9019091BA01EAA1FBA18E179F070A
:100DD0000CF03CC1F1E0F093BC018091BC0101300A
:100DE000110511F48093BB019091BB01891719F093
:100DF0002FEF221A320A34E12316310409F0A4CE6F
:100E00004AA55BA5BA01550F880B990B0E945F0993
:100E100020E030E04AE754E40E94B50820E030E0EA
:100E200040E85AE30E94140A4B015C0120917901C9
:100E300030917A0140917B0150917C010E94140A0B
:100E40006AA37BA38CA39DA3B80190E080E00E94DD
:100E50005D092B013C01AC019B016091A5017091E2
:100E6000A6018091A7019091A8010E94B5080E9457
:100E7000870A9B01AC016AA17BA18CA19DA10E9464
:100E8000140A6B017C01C0926D01D0926E01E09258
:100E90006F01F092700120917D0130917E014091AF
:100EA0007F0150918001C501B4010E94140A6EA314
:100EB0007FA388A799A7A30192016091AD017091CA
:100EC000AE018091AF019091B0010E94B5080E94DF
:100ED000870A9B01AC016EA17FA188A599A50E94FC
:100EE000140A4B015C018092710190927201A092F0
:100EF0007301B09274012EA13FA148A559A56AA122
:100F00007BA18CA19DA10E94140A2091B501309172
:100F1000B6014091B7015091B8010E94140AA30193
:100F200092010E94B5082B013C0140926101509250
:100F300062016092630170926401A5019401C7018E
:100F4000B6010E94140A9B01AC0120936501309305
:100F500066014093670150936801C301B2010E948A
:100F6000B5086093690170936A0180936B01909357
:100F70006C011092A5011092A6011092A701109287
:100F8000A8011092AD011092AE011092AF01109223
:100F9000B0011092B5011092B6011092B7011092F3
:100FA000B801C701B6010E9427096B01E0916D02EB
:100FB000E33008F44EC0E2E0F0E0E65AFD4F8489E9
:100FC00080680E94E0028FE391E00E943D020D2CB8
:100FD000000CEE08FF08F7FE3EC041E06DE28AE536
:100FE00092E00E948D0222273327A9012C193D0986
:100FF0004E095F0919A28E010F5D1F4FCA01B90189
:101000002AE030E040E050E00E94DC0A605DF80138
:1010100062938F01211531054105510579F70115BD
:10102000110519F0C8010E943D028DE491E00E9473
:101030003D0220E030E0232B09F4E8CC0E9472014D
:10104000882309F4E3CC0E940000E0CC1092BC019C
:10105000C4CEE150B1CFA701960119A28E010F5D58
:101060001F4FCA01B9012AE030E040E050E00E9481
:10107000DC0A605DF80162938F012115310541059D
:10108000510579F7CCCF5058BB27AA270E945B089F
:101090000C94D5090E94C70938F00E94CE0920F0AF
:1010A00039F49F3F19F426F40C94C4090EF4E0952A
:1010B000E7FB0C94BE09E92F0E94E60958F3BA1722
:1010C000620773078407950720F079F4A6F50C945E
:1010D000080A0EF4E0950B2EBA2FA02D0B01B901D2
:1010E00090010C01CA01A0011124FF27591B99F09E
:1010F000593F50F4503E68F11A16F040A22F232FAA
:10110000342F4427585FF3CF469537952795A795F9
:10111000F0405395C9F77EF41F16BA0B620B730BA0
:10112000840BBAF09150A1F0FF0FBB1F661F771F11
:10113000881FC2F70EC0BA0F621F731F841F48F4C6
:10114000879577956795B795F7959E3F08F0B0CF4F
:101150009395880F08F09927EE0F97958795089536
:101160000E949A0908F481E008950E94C9080C942D
:10117000D5090E94CE0958F00E94C70940F029F411
:101180005F3F29F00C94BE0951110C94090A0C948C
:10119000C4090E94E60968F39923B1F3552391F33A
:1011A000951B550BBB27AA2762177307840738F0D6
:1011B0009F5F5F4F220F331F441FAA1FA9F335D033
:1011C0000E2E3AF0E0E832D091505040E695001CE7
:1011D000CAF72BD0FE2F29D0660F771F881FBB1FA1
:1011E000261737074807AB07B0E809F0BB0B802D7F
:1011F000BF01FF2793585F4F3AF09E3F510578F0AB
:101200000C94BE090C94090A5F3FE4F3983ED4F3B2
:10121000869577956795B795F7959F5FC9F7880F7E
:10122000911D9695879597F90895E1E0660F771FD0
:10123000881FBB1F621773078407BA0720F0621B61
:10124000730B840BBA0BEE1F88F7E09508950E948C
:101250002E096894B1110C94090A08950E94EE09B0
:1012600088F09F5798F0B92F9927B751B0F0E1F067
:10127000660F771F881F991F1AF0BA95C9F714C017
:10128000B13091F00E94080AB1E008950C94080A68
:10129000672F782F8827B85F39F0B93FCCF3869550
:1012A00077956795B395D9F73EF4909580957095AD
:1012B00061957F4F8F4F9F4F0895E89409C097FB2A
:1012C0003EF490958095709561957F4F8F4F9F4F1D
:1012D0009923A9F0F92F96E9BB279395F695879561
:1012E00077956795B795F111F8CFFAF4BB0F11F424
:1012F00060FF1BC06F5F7F4F8F4F9F4F16C08823CB
:1013000011F096E911C0772321F09EE8872F762F00
:1013100005C0662371F096E8862F70E060E02AF041
:101320009A95660F771F881FDAF7880F969587952D
:1013300097F90895990F0008550FAA0BE0E8FEEF02
:1013400016161706E807F907C0F012161306E40789
:10135000F50798F0621B730B840B950B39F40A2682
:1013600061F0232B242B252B21F408950A2609F460
:10137000A140A6958FEF811D811D089597F99F6764
:1013800080E870E060E008959FEF80EC089500240D
:101390000A941616170618060906089500240A94DA
:1013A00012161306140605060895092E0394000C60
:1013B00011F4882352F0BB0F40F4BF2B11F460FFEF
:1013C00004C06F5F7F4F8F4F9F4F089557FD905818
:1013D000440F551F59F05F3F71F04795880F97FBF9
:1013E000991F61F09F3F79F08795089512161306B3
:1013F0001406551FF2CF4695F1DF08C016161706E2
:101400001806991FF1CF8695710561050894089516
:10141000E894BB2766277727CB0197F908950E94A8
:101420009A0908F48FEF08950E94270A0C94D509B1
:101430000E94C70938F00E94CE0920F0952311F0D0
:101440000C94BE090C94C40911240C94090A0E943E
:10145000E60970F3959FC1F3950F50E0551F629F09
:10146000F001729FBB27F00DB11D639FAA27F00DFD
:10147000B11DAA1F649F6627B00DA11D661F829F24
:101480002227B00DA11D621F739FB00DA11D621F09
:10149000839FA00D611D221F749F3327A00D611D26
:1014A000231F849F600D211D822F762F6A2F112408
:1014B0009F5750409AF0F1F088234AF0EE0FFF1F3B
:1014C000BB1F661F771F881F91505040A9F79E3F92
:1014D000510580F00C94BE090C94090A5F3FE4F3B7
:1014E000983ED4F3869577956795B795F795E795E8
:1014F0009F5FC1F7FE2B880F911D9695879597F9F1
:10150000089519F416F40C94C4090C94C70A0E94A7
:10151000EE09B8F39923C9F3B6F39F57550B87FF2C
:101520000E94D50A0024A0E640EA90018058569512
:10153000979528F4805C660F771F881F20F0261788
:101540003707480730F4621B730B840B20293129BD
:101550004A2BA69517940794202531254A2758F73A
:10156000660F771F881F20F026173707480730F4CB
:10157000620B730B840B200D311D411DA09581F76B
:10158000B901842F9158880F9695879508959F3FAC
:1015900031F0915020F4879577956795B795880F2E
:1015A000911D9695879597F9089591505040660F33
:1015B000771F881FD2F70895A1E21A2EAA1BBB1B22
:1015C000FD010DC0AA1FBB1FEE1FFF1FA217B3070F
:1015D000E407F50720F0A21BB30BE40BF50B661F25
:1015E000771F881F991F1A9469F7609570958095E9
:1015F00090959B01AC01BD01CF010895052E97FB8D
:101600001EF400940E94150B57FD07D00E94DC0ABF
:1016100007FC03D04EF40C94150B50954095309573
:1016200021953F4F4F4F5F4F08959095809570954E
:1016300061957F4F8F4F9F4F0895EE0FFF1F0590CD
:0A164000F491E02D0994F894FFCF17
:10164A000000000005018601A6005201D700B5007E
:10165A00C90000000000870386013A023902204DC2
:10166A0045415355524520414320564F4C5441471A
:10167A00452020202020202020202020202000205B
:10168A002020564F4C54414745203D2000562020EB
:08169A00202020202020200068
:00000001FF
