:100000000C945D000C9485000C9485000C94850084
:100010000C9485000C9485000C9485000C9485004C
:100020000C9485000C9485000C9485000C9485003C
:100030000C9485000C9485000C9485000C9485002C
:100040000C947C050C9485000C944A050C942405B2
:100050000C9485000C9485000C9485000C9485000C
:100060000C9485000C94850000000008000201003B
:100070000003040700000000000000000000000072
:10008000250028002B0000000000240027002A0083
:10009000040404040404040402020202020203032E
:1000A0000303030301020408102040800102040836
:1000B0001020010204081020C60511241FBECFEF36
:1000C000D8E0DEBFCDBF11E0A0E0B1E0E8EEF9E19D
:1000D00002C005900D92AA37B107D9F722E0AAE72E
:1000E000B1E001C01D92A439B207E1F710E0CDE5FF
:1000F000D0E004C02197FE010E94D20CCC35D1077C
:10010000C9F70E9411060C94F20C0C94000090E0C8
:10011000FC01EC55FF4F249180579F4FFC018491C7
:10012000882399F090E0880F991FFC01EA57FF4F50
:10013000A591B491FC01E458FF4F859194918FB73C
:10014000F894EC91E22BEC938FBF0895FC01538D52
:10015000448D252F30E0842F90E0821B930B5417A1
:1001600010F0CF96089501970895FC01918D828D2E
:10017000981761F0A28DAE0FBF2FB11D5D968C91C7
:10018000928D9F5F9F73928F90E008958FEF9FEF06
:100190000895FC01918D828D981731F0828DE80FC2
:1001A000F11D858D90E008958FEF9FEF0895FC017C
:1001B000918D228D892F90E0805C9F4F821B910949
:1001C0008F7399270895FC01A48DA80FB92FB11D35
:1001D000A35ABF4F2C91848D90E001968F7399277D
:1001E000848FA689B7892C93A089B1898C9183705B
:1001F00080648C93938D848D981306C00288F38954
:10020000E02D80818F7D80830895EF92FF920F9380
:100210001F93CF93DF93EC0181E0888F9B8D8C8DB2
:1002200098131AC0E889F989808185FF15C09FB7A6
:10023000F894EE89FF896083E889F9898081837069
:10024000806480839FBF81E090E0DF91CF911F9118
:100250000F91FF90EF900895F62E0B8D10E00F5F39
:100260001F4F0F731127E02E8C8D8E110CC00FB60F
:1002700007FCFACFE889F989808185FFF5CFCE01A7
:100280000E94E300F1CFEB8DEC0FFD2FF11DE35A3F
:10029000FF4FF0829FB7F8940B8FEA89FB8980812A
:1002A0008062CFCFCF93DF93EC01888D8823B9F0A4
:1002B000AA89BB89E889F9898C9185FD03C0808171
:1002C00086FD0DC00FB607FCF7CF8C9185FFF2CFEE
:1002D000808185FFEDCFCE010E94E300E9CFDF9161
:1002E000CF9108958FED91E00E94D70021E0892BF6
:1002F00009F420E0822F089580E090E0892B29F016
:100300000E94720181110C9400000895AF92BF9277
:10031000CF92DF92EF92FF920F931F93CF93DF93D1
:100320006C017B018B01040F151FEB015E01AE1800
:10033000BF08C017D10759F06991D601ED91FC9122
:100340000190F081E02DC6010995892B79F7C5014F
:10035000DF91CF911F910F91FF90EF90DF90CF90A1
:10036000BF90AF90089590E0FC01E859FF4F2491B1
:10037000FC01EC55FF4F3491FC01E057FF4FE49135
:10038000EE23C9F0222339F0233001F1A8F4213003
:1003900019F1223029F1F0E0EE0FFF1FE458FF4F72
:1003A000A591B4918FB7F894EC91611126C0309566
:1003B0003E233C938FBF08952730A9F02830C9F021
:1003C000243049F7809180008F7D03C080918000A8
:1003D0008F7780938000DFCF84B58F7784BDDBCFAC
:1003E00084B58F7DFBCF8091B0008F778093B00074
:1003F000D2CF8091B0008F7DF9CF3E2BDACF8E30F7
:1004000008F08E508770806480937C0080917A0021
:10041000806480937A0080917A0086FDFCCF809181
:1004200078009091790008953FB7F89480917F010A
:1004300090918001A0918101B091820126B5A89B85
:1004400005C02F3F19F00196A11DB11D3FBFBA2F66
:10045000A92F982F8827BC01CD01620F711D811D26
:10046000911D42E0660F771F881F991F4A95D1F7AB
:1004700008958F929F92AF92BF92CF92DF92EF92A8
:10048000FF924B015C010E9414026B017C010E94EF
:1004900014026C197D098E099F09683E734081051D
:1004A0009105A8F321E0821A9108A108B10888EE0D
:1004B000C80E83E0D81EE11CF11C81149104A10434
:1004C000B10429F7FF90EF90DF90CF90BF90AF90ED
:1004D0009F908F9008952FB7F89460917B01709151
:1004E0007C0180917D0190917E012FBF0895089538
:1004F00090E080E00895FC0101900020E9F7319739
:10050000AF01481B590BBC018CE792E00C948601AB
:100510008F929F92AF92BF920F931F93CF93DF93CF
:10052000CDB7DEB7A1970FB6F894DEBF0FBECDBF33
:1005300019A2423008F44AE08E010F5D1F4F842E4D
:10054000912CB12CA12CA50194010E94890CE62FBD
:10055000B901CA01EA30F4F4E05DD801EE938D01EF
:10056000232B242B252B79F790E080E0109719F0AE
:10057000CD010E947B02A1960FB6F894DEBF0FBE9C
:10058000CDBFDF91CF911F910F91BF90AF909F9002
:100590008F900895E95CE1CFCF93DF93EC0160E0A9
:1005A0008E810E94B30161E08E810E94B30160E000
:1005B0008E810E94B3018BE891E00197F1F7DF9102
:1005C000CF910895CF92DF92EF92FF920F931F93F6
:1005D000CF93DF936C017C0187E0E80EF11CD0E043
:1005E000C0E0062F10E0B8010C2E02C0759567958B
:1005F0000A94E2F76170F70181917F010E94B301D3
:100600002196C430D10579F7C601DF91CF911F91B2
:100610000F91FF90EF90DF90CF900C94CC02CF928F
:10062000DF92EF92FF920F931F93CF93DF93EC0132
:10063000F62E642F8C810E94B3018D818F3F19F0BB
:1006400060E00E94B3010F2D10E08F8584FF25C06C
:100650006E0187E0C80ED11CF12CE12CB8010E2CE4
:1006600002C0759567950A94E2F76170F601819171
:100670006F010E94B301FFEFEF1AFF0A88E0E8164E
:10068000F10461F7CE01DF91CF911F910F91FF909F
:10069000EF90DF90CF900C94CC02B80184E0759578
:1006A00067958A95E1F7CE010E94E2026F2DCE0197
:1006B000DF91CF911F910F91FF90EF90DF90CF903E
:1006C0000C94E20240E0682F8CE792E00C940F0358
:1006D000CF93DF93613029F090918B0298609093D3
:1006E0008B0260938F021092900290E4909391029B
:1006F00080939202805C80939302809180020E949A
:100700008700809181028F3F11F00E9487008091C5
:1007100082020E948700CCE7D2E09E012C57324033
:1007200080918B0284FD0AC084E090E02196281716
:1007300039073CF48E810E948700EFCF88E090E07B
:10074000F5CF8BE39DE00197F1F760E080918002A7
:100750000E94B30160E0809182020E94B301809107
:1007600081028F3F19F060E00E94B30180918B02FB
:1007700084FD39C063E08CE792E00E94E202CBE4A2
:10078000D6E4CE010197F1F763E08CE792E00E9496
:10079000E2022197F1F763E08CE792E00E94E20227
:1007A00083E592E00197F1F762E08CE792E00E9426
:1007B000E20280918B0280620E94620384E0809357
:1007C0008C028CE00E94620381E00E9462038BE352
:1007D0009FE10197F1F782E080938D0286E0DF913F
:1007E000CF910C94620380620E9462038BE496E4D2
:1007F0000197F1F780918B0280620E94620383E58A
:1008000092E00197F1F780918B0280620E9462036F
:10081000D0CF90918F02891710F08FEF890FE82FBA
:10082000F0E0E458FD4F848980680C94620341E055
:100830000E940F0381E090E008954F925F926F92C3
:100840007F928F929F92AF92BF92CF92DF92EF9260
:10085000FF920F931F93CF936B017C01742EAC0119
:100860009B010E946F0C882399F08EE191E0CF915B
:100870001F910F91FF90EF90DF90CF90BF90AF90BE
:100880009F908F907F906F905F904F900C947B0221
:1008900046015701E894B7F82FEF3FEF4FE75FE7C6
:1008A000C501B4010E946F0C81110DC02FEF3FEF05
:1008B0004FE75FE7C501B4010E94580A18161CF4FF
:1008C00082E291E0D4CF2FEF3FEF4FE75FE4C70123
:1008D000B6010E94B70B18161CF486E291E0C7CF50
:1008E0002FEF3FEF4FE75FECC701B6010E94580AB8
:1008F00087FDF3CF20E030E0A901C701B6010E94D7
:10090000580A10E000E087FF0CC041E06DE28CE780
:1009100092E00E940F03F7FAF094F7F8F09401E0E8
:1009200010E0C0E060E070E080E09FE37C1641F002
:1009300020E030E040E251E40E945D0ACF5FF6CF54
:10094000A70196010E94EC094B015C010E94D60AA6
:100950002B013C014AE00E948802080F191FCC239A
:10096000C9F1C301B2010E94050B9B01AC01C50195
:10097000B4010E94EB094B015C0141E06EE28CE79F
:1009800092E00E940F030F5F1F4FC15018F120E04B
:1009900030E040E251E4C501B4010E94BC0B2B01E0
:1009A0003C010E94D60A4B01B12CA12C4AE0C501A2
:1009B000B4010E948802080F191FC501B4010E94EA
:1009C000050B9B01AC01C301B2010E94EB094B0175
:1009D0005C01DBCFC801CF911F910F91FF90EF9089
:1009E000DF90CF90BF90AF909F908F907F906F904F
:1009F0005F904F900895CF92DF92EF92FF926C013B
:100A0000990FEE08FF08F7FE16C041E06DE28CE793
:100A100092E00E940F0366277727CB016C197D09AE
:100A20008E099F094AE00E9488020196FF90EF908C
:100A3000DF90CF9008954AE0C701B601FF90EF9094
:100A4000DF90CF900C9488021F920F920FB60F92F6
:100A500011242F933F934F935F936F937F938F93C3
:100A60009F93AF93BF93EF93FF938FED91E00E941D
:100A7000E300FF91EF91BF91AF919F918F917F9193
:100A80006F915F914F913F912F910F900FBE0F90FB
:100A90001F9018951F920F920FB60F9211242F934B
:100AA0008F939F93EF93FF93E091EF01F091F0010B
:100AB0008081E091F501F091F60182FD1BC09081EB
:100AC0008091F8018F5F8F732091F901821741F0B7
:100AD000E091F801F0E0E152FE4F958F8093F8012C
:100AE000FF91EF919F918F912F910F900FBE0F90DB
:100AF0001F9018958081F4CF1F920F920FB60F921E
:100B000011242F933F938F939F93AF93BF93809123
:100B10007B0190917C01A0917D01B0917E0130918B
:100B20007A0123E0230F2D3758F50196A11DB11D41
:100B300020937A0180937B0190937C01A0937D01A7
:100B4000B0937E0180917F0190918001A0918101FD
:100B5000B09182010196A11DB11D80937F019093F8
:100B60008001A0938101B0938201BF91AF919F91C9
:100B70008F913F912F910F900FBE0F901F9018955E
:100B800026E8230F0296A11DB11DD2CFEFEDF1E0B3
:100B90001382128288EE93E0A0E0B0E08483958314
:100BA000A683B78384E091E09183808385EC90E015
:100BB0009587848784EC90E09787868780EC90E027
:100BC000918B808B81EC90E0938B828B82EC90E018
:100BD000958B848B86EC90E0978B868B118E128E92
:100BE000138E148EECE7F2E01382128286E191E01C
:100BF000918380838DE084838FEF85838CE086836F
:100C00008BE087838AE0808789E0818788E082871C
:100C10001386148615861686178661E080E10C948B
:100C20006803CF93DF93CDB7DEB72E970FB6F89456
:100C3000DEBF0FBECDBF789484B5826084BD84B51D
:100C4000816084BD85B5826085BD85B5816085BDC7
:100C500080916E00816080936E001092810080917F
:100C60008100826080938100809181008160809307
:100C70008100809180008160809380008091B1002C
:100C800084608093B1008091B00081608093B00057
:100C900080917A00846080937A0080917A008260EB
:100CA00080937A0080917A00816080937A008091AD
:100CB0007A00806880937A001092C1008EE090E004
:100CC00090939801809397018DE79FE3AAE4B3E4A2
:100CD00080939B0190939C01A0939D01B0939E01F2
:100CE0008AE999E9A9EDBFE38093A3019093A40158
:100CF000A093A501B093A60180E090E0A0E0B4E449
:100D00008093B7019093B801A093B901B093BA0151
:100D100065E084E10E94680382E00E9487002EE47F
:100D200020937C0062E070E080E090E00E94390255
:100D300080917A00806480937A0080917A0086FDA9
:100D4000FCCF809178002091790030E0322F22276B
:100D5000032E000C440B550B282B60E070E381E15F
:100D600090E00E94AB0C29873A874B875C870E94F2
:100D70006B024B015C01809197010E94FF019093EF
:100D8000DC018093DB01BC01990F880B990B0E9459
:100D9000070B6B017C012DEC3CEC4CE054E40E9411
:100DA000580A87FF0CC041E0498326E636E646EE46
:100DB00053E4C701B6010E94B70B18160CF0198254
:100DC0000E946B02681979098A099B09613D774085
:100DD0008105910518F43981332369F20E946B0271
:100DE0006D837E838F83988710E000E0312C212C67
:100DF0000E946B022D813E814F815885621B730BCF
:100E0000840B950B603D77408105910508F046C144
:100E10000F5F1F4F8091AF019091B001A091B10180
:100E2000B091B2018093AB019093AC01A093AD015E
:100E3000B093AE01809197010E94FF019093A801A9
:100E40008093A701809199010E94FF019E878D8761
:100E50009093AA018093A9018090B7019090B80166
:100E6000A090B901B090BA012091A7013091A801DA
:100E70003A832983B901330F880B990B0E94070B22
:100E80006B017C01A50194010E94EB0920E030E098
:100E900040E85AE30E94BC0BA50194010E94EC09B2
:100EA0009B01AC012093B7013093B8014093B90185
:100EB0005093BA01C701B6010E94EB094B015C01D6
:100EC0008092AF019092B001A092B101B092B201B4
:100ED0004090BB015090BC016090BD017090BE017C
:100EE0004D855E85BA01550F880B990B0E94070B43
:100EF0006B017C01A30192010E94EB0920E030E02C
:100F000040E85AE30E94BC0BA30192010E94EC0945
:100F10009B01AC012093BB013093BC014093BD0108
:100F20005093BE01C701B6010E94EB096B017C0121
:100F3000C092B301D092B401E092B501F092B60133
:100F4000A5019401C501B4010E94BC0B9B01AC0139
:100F50002093C3013093C4014093C5015093C6014F
:100F60006091C7017091C8018091C9019091CA0137
:100F70000E94EC096093C7017093C8018093C90176
:100F80009093CA01A7019601C701B6010E94BC0B4C
:100F90009B01AC012093CB013093CC014093CD0158
:100FA0005093CE016091CF017091D0018091D10119
:100FB0009091D2010E94EC096093CF017093D0010F
:100FC0008093D1019093D2014090AB015090AC013D
:100FD0006090AD017090AE01A3019201C501B40112
:100FE0000E94EB092091A3013091A4014091A50139
:100FF0005091A6010E94BC0BA30192010E94EC0932
:101000009B01AC012093BF013093C0014093C1010B
:101010005093C201C701B6010E94BC0B9B01AC01F9
:101020002093D3013093D4014093D5015093D6013E
:101030006091D7017091D8018091D9019091DA0126
:101040000E94EC096093D7017093D8018093D90175
:101050009093DA018091DE018093DD018091DB01C4
:101060009091DC0129813A81821793070CF0B0C17D
:1010700031E03093DE018091DE010130110511F481
:101080008093DD019091DD01981719F04FEF241A3C
:10109000340A84E12816310409F0AACE49855A851C
:1010A000BA01550F880B990B0E94070B20E030E026
:1010B0004AE754E40E945D0A20E030E040E85AE349
:1010C0000E94BC0B4B015C0120919B0130919C0163
:1010D00040919D0150919E010E94BC0B69837A83CF
:1010E0008B839C83B80190E080E00E94050B2B016C
:1010F0003C01AC019B016091C7017091C8018091D6
:10110000C9019091CA010E945D0A0E942F0C9B01A7
:10111000AC0169817A818B819C810E94BC0B6B013F
:101120007C01C0928F01D0929001E0929101F092E7
:10113000920120919F013091A0014091A101509115
:10114000A201C501B4010E94BC0B6D837E838F8315
:101150009887A30192016091CF017091D001809195
:10116000D1019091D2010E945D0A0E942F0C9B0137
:10117000AC016D817E818F8198850E94BC0B4B01F3
:101180005C018092930190929401A0929501B0929B
:1011900096012D813E814F81588569817A818B81AD
:1011A0009C810E94BC0B2091D7013091D8014091C5
:1011B000D9015091DA010E94BC0BA30192010E9457
:1011C0005D0A2B013C0140928301509284016092A0
:1011D000850170928601A5019401C701B6010E94A4
:1011E000BC0B9B01AC012093870130938801409395
:1011F000890150938A01C301B2010E945D0A609384
:101200008B0170938C0180938D0190938E011092CD
:10121000C7011092C8011092C9011092CA01109220
:10122000CF011092D0011092D1011092D2011092F0
:10123000D7011092D8011092D9011092DA01C7019A
:10124000B6010E94CF0A6B0180E00E9409048AE285
:1012500091E00E947B02C6010E94FB0488E391E0BA
:101260000E947B0284EF91E09A838983A12CB12CA8
:1012700000E010E08FE00E94FF01BC01990F880B95
:10128000990B0E94070B3B014C019501A8010E949C
:10129000B70B181614F45301840161E070E080E08C
:1012A00090E00E94390289819A8101979A8389830B
:1012B000892B01F72AE038E240EA5BE3B501C80177
:1012C0000E94BC0B20E030E040E250E40E94EB09B9
:1012D00022E03BE247E85DE30E945D0A23EF34E051
:1012E00045EB5FE30E945D0A4B015C0181E00E94D7
:1012F00009048CE391E00E947B0242E0C501B40145
:101300000E941D048AE491E00E947B02B6010D2C2C
:10131000000C880B990B0E94070BA50194010E94F9
:10132000BC0B0E94CF0A4B0182E00E94090485E5B4
:1013300091E00E947B02C4010E94FB0481E691E0DF
:101340000E947B020E946B022B013C0183E00E9401
:10135000090485E691E00E947B02C301B20128EEF8
:1013600033E040E050E00E94AB0CD4010E94CA0C74
:1013700020E13EE040E050E00E94AB0CCA01B90120
:101380000E94070B41E00E941D0482E791E00E9449
:101390007B029EECC91AD10861E022E3C216D10497
:1013A00008F460E082E00E94B30168EC70E080E045
:1013B00090E00E94390240E050E0452B09F4AFCCA8
:1013C0000E947201882309F4AACC0E940000A7CCD5
:1013D0001092DE0150CE5058BB27AA270E94030A64
:1013E0000C947D0B0E946F0B38F00E94760B20F05E
:1013F00039F49F3F19F426F40C946C0B0EF4E0952D
:10140000E7FB0C94660BE92F0E948E0B58F3BA177A
:10141000620773078407950720F079F4A6F50C940A
:10142000B00B0EF4E0950B2EBA2FA02D0B01B901D5
:1014300090010C01CA01A0011124FF27591B99F04A
:10144000593F50F4503E68F11A16F040A22F232F56
:10145000342F4427585FF3CF469537952795A795A6
:10146000F0405395C9F77EF41F16BA0B620B730B4D
:10147000840BBAF09150A1F0FF0FBB1F661F771FBE
:10148000881FC2F70EC0BA0F621F731F841F48F473
:10149000879577956795B795F7959E3F08F0B0CFFC
:1014A0009395880F08F09927EE0F979587950895E3
:1014B0000E94420B08F481E008950E94710A0C9486
:1014C0007D0B0E94760B58F00E946F0B40F029F4C0
:1014D0005F3F29F00C94660B51110C94B10B0C94E6
:1014E0006C0B0E948E0B68F39923B1F3552391F393
:1014F000951B550BBB27AA2762177307840738F083
:101500009F5F5F4F220F331F441FAA1FA9F335D0DF
:101510000E2E3AF0E0E832D091505040E695001C93
:10152000CAF72BD0FE2F29D0660F771F881FBB1F4D
:10153000261737074807AB07B0E809F0BB0B802D2B
:10154000BF01FF2793585F4F3AF09E3F510578F057
:101550000C94660B0C94B10B5F3FE4F3983ED4F30C
:10156000869577956795B795F7959F5FC9F7880F2B
:10157000911D9695879597F90895E1E0660F771F7D
:10158000881FBB1F621773078407BA0720F0621B0E
:10159000730B840BBA0BEE1F88F7E09508950E9439
:1015A000D60A6894B1110C94B10B08950E94960B61
:1015B00088F09F5798F0B92F9927B751B0F0E1F014
:1015C000660F771F881F991F1AF0BA95C9F714C0C4
:1015D000B13091F00E94B00BB1E008950C94B00BC3
:1015E000672F782F8827B85F39F0B93FCCF38695FD
:1015F00077956795B395D9F73EF49095809570955A
:1016000061957F4F8F4F9F4F0895E89409C097FBD6
:101610003EF490958095709561957F4F8F4F9F4FC9
:101620009923A9F0F92F96E9BB279395F69587950D
:1016300077956795B795F111F8CFFAF4BB0F11F4D0
:1016400060FF1BC06F5F7F4F8F4F9F4F16C0882377
:1016500011F096E911C0772321F09EE8872F762FAD
:1016600005C0662371F096E8862F70E060E02AF0EE
:101670009A95660F771F881FDAF7880F96958795DA
:1016800097F90895990F0008550FAA0BE0E8FEEFAF
:1016900016161706E807F907C0F012161306E40736
:1016A000F50798F0621B730B840B950B39F40A262F
:1016B00061F0232B242B252B21F408950A2609F40D
:1016C000A140A6958FEF811D811D089597F99F6711
:1016D00080E870E060E008959FEF80EC08950024BA
:1016E0000A941616170618060906089500240A9487
:1016F00012161306140605060895092E0394000C0D
:1017000011F4882352F0BB0F40F4BF2B11F460FF9B
:1017100004C06F5F7F4F8F4F9F4F089557FD9058C4
:10172000440F551F59F05F3F71F04795880F97FBA5
:10173000991F61F09F3F79F087950895121613065F
:101740001406551FF2CF4695F1DF08C0161617068E
:101750001806991FF1CF86957105610508940895C3
:10176000E894BB2766277727CB0197F908950E9455
:10177000420B08F48FEF08950E94CF0B0C947D0B61
:101780000E946F0B38F00E94760B20F0952311F029
:101790000C94660B0C946C0B11240C94B10B0E94EE
:1017A0008E0B70F3959FC1F3950F50E0551F629F0C
:1017B000F001729FBB27F00DB11D639FAA27F00DAA
:1017C000B11DAA1F649F6627B00DA11D661F829FD1
:1017D0002227B00DA11D621F739FB00DA11D621FB6
:1017E000839FA00D611D221F749F3327A00D611DD3
:1017F000231F849F600D211D822F762F6A2F1124B5
:101800009F5750409AF0F1F088234AF0EE0FFF1FE7
:10181000BB1F661F771F881F91505040A9F79E3F3E
:10182000510580F00C94660B0C94B10B5F3FE4F310
:10183000983ED4F3869577956795B795F795E79594
:101840009F5FC1F7FE2B880F911D9695879597F99D
:10185000089519F416F40C946C0B0C94740C0E94FB
:10186000960BB8F39923C9F3B6F39F57550B87FF2F
:101870000E94820C0024A0E640EA90018058569510
:10188000979528F4805C660F771F881F20F0261735
:101890003707480730F4621B730B840B202931296A
:1018A0004A2BA69517940794202531254A2758F7E7
:1018B000660F771F881F20F026173707480730F478
:1018C000620B730B840B200D311D411DA09581F718
:1018D000B901842F9158880F9695879508950E9495
:1018E000420B880B990B08959F3F31F0915020F4E3
:1018F000879577956795B795880F911D96958795EC
:1019000097F9089591505040660F771F881FD2F7BE
:101910000895A1E21A2EAA1BBB1BFD010DC0AA1F30
:10192000BB1FEE1FFF1FA217B307E407F50720F048
:10193000A21BB30BE40BF50B661F771F881F991FC3
:101940001A9469F760957095809590959B01AC010C
:10195000BD01CF010895052E97FB1EF400940E944F
:10196000C20C57FD07D00E94890C07FC03D04EF42F
:101970000C94C20C50954095309521953F4F4F4F98
:101980005F4F089590958095709561957F4F8F4F2B
:101990009F4F0895B7FF0C94D80C0E94D80C821B5F
:1019A000930B0895EE0FFF1F0590F491E02D09941D
:1019B0000E94E30CA59F900DB49F900DA49F800DF5
:1019C000911D11240895A29FB001B39FC001A39F50
:1019D000700D811D1124911DB29F700D811D112468
:0819E000911D0895F894FFCF5A
:1019E8000000000005018601A6005201D700B500DD
:1019F800C9000000000017048601780277026E61B2
:101A08006E00696E66006F766600202020564F4C87
:101A180054414745203D20005620200020202043E7
:101A2800757272656E74203D2000412020202020B0
:101A38002020202000202020506F776572203D2034
:101A48000057202000202020456E65726779203DD0
:0A1A58002000576820202020000025
:00000001FF
