:100000000C945D000C9485000C9485000C94850084
:100010000C9485000C9485000C9485000C9485004C
:100020000C9485000C9485000C9485000C9485003C
:100030000C9485000C9485000C9485000C9485002C
:100040000C940E030C9485000C9485000C94850090
:100050000C9485000C9485000C9485000C9485000C
:100060000C9485000C94850000000008000201003B
:100070000003040700000000000000000000000072
:10008000250028002B0000000000240027002A0083
:10009000040404040404040402020202020203032E
:1000A0000303030301020408102040800102040836
:1000B0001020010204081020CA0411241FBECFEF33
:1000C000D8E0DEBFCDBF11E0A0E0B1E0EEE9FEE098
:1000D00002C005900D92A235B107D9F721E0A2E543
:1000E000B1E001C01D92A337B207E1F710E0CDE502
:1000F000D0E004C02197FE010E944707CC35D1070C
:10010000C9F70E9458030C944D070C94000090E02E
:10011000FC01EC55FF4F249180579F4FFC018491C7
:10012000882399F090E0880F991FFC01EA57FF4F50
:10013000A591B491FC01E458FF4F859194918FB73C
:10014000F894EC91E22BEC938FBF0895AF92BF929D
:10015000CF92DF92EF92FF920F931F93CF93DF9393
:100160006C017B018B01040F151FEB015E01AE18C2
:10017000BF08C017D10759F06991D601ED91FC91E4
:100180000190F081E02DC6010995892B79F7C50111
:10019000DF91CF911F910F91FF90EF90DF90CF9063
:1001A000BF90AF90089590E0FC01E859FF4F249173
:1001B000FC01EC55FF4F3491FC01E057FF4FE491F7
:1001C000EE23C9F0222339F0233001F1A8F42130C5
:1001D00019F1223029F1F0E0EE0FFF1FE458FF4F34
:1001E000A591B4918FB7F894EC91611126C0309528
:1001F0003E233C938FBF08952730A9F02830C9F0E3
:10020000243049F7809180008F7D03C08091800069
:100210008F7780938000DFCF84B58F7784BDDBCF6D
:1002200084B58F7DFBCF8091B0008F778093B00035
:10023000D2CF8091B0008F7DF9CF3E2BDACF3FB780
:10024000F8948091570190915801A0915901B09173
:100250005A0126B5A89B05C02F3F19F00196A11D94
:10026000B11D3FBFBA2FA92F982F8827BC01CD0100
:10027000620F711D811D911D42E0660F771F881F5F
:10028000991F4A95D1F708958F929F92AF92BF928E
:10029000CF92DF92EF92FF924B015C010E941F010F
:1002A0006B017C010E941F016C197D098E099F0959
:1002B000683E734081059105A8F321E0821A9108F8
:1002C000A108B10888EEC80E83E0D81EE11CF11C1D
:1002D00081149104A104B10429F7FF90EF90DF90FD
:1002E000CF90BF90AF909F908F900895089590E029
:1002F00080E00895FC0101900020E9F73197AF01FB
:10030000481B590BBC018BE591E00C94A6008F9221
:100310009F92AF92BF920F931F93CF93DF93CDB76E
:10032000DEB7A1970FB6F894DEBF0FBECDBF19A2FE
:10033000423008F44AE08E010F5D1F4F842E912C4D
:10034000B12CA12CA50194010E942507E62FB9012B
:10035000CA01EA30F4F4E05DD801EE938D01232B5D
:10036000242B252B79F790E080E0109719F0CD0130
:100370000E947A01A1960FB6F894DEBF0FBECDBFE2
:10038000DF91CF911F910F91BF90AF909F908F9071
:100390000895E95CE1CFCF93DF93EC0160E08E81BB
:1003A0000E94D30061E08E810E94D30060E08E81C4
:1003B0000E94D3008BE891E00197F1F7DF91CF9194
:1003C0000895CF92DF92EF92FF920F931F93CF93F6
:1003D000DF936C017C0187E0E80EF11CD0E0C0E007
:1003E000062F10E0B8010C2E02C0759567950A948F
:1003F000E2F76170F70181917F010E94D30021969D
:10040000C430D10579F7C601DF91CF911F910F91CB
:10041000FF90EF90DF90CF900C94CB01CF92DF92C2
:10042000EF92FF920F931F93CF93DF93EC01F62E81
:10043000642F8C810E94D3008D818F3F19F060E082
:100440000E94D3000F2D10E08F8584FF25C06E0120
:1004500087E0C80ED11CF12CE12CB8010E2C02C093
:10046000759567950A94E2F76170F60181916F01C5
:100470000E94D300FFEFEF1AFF0A88E0E816F104AC
:1004800061F7CE01DF91CF911F910F91FF90EF9017
:10049000DF90CF900C94CB01B80184E075956795FF
:1004A0008A95E1F7CE010E94E1016F2DCE01DF9127
:1004B000CF911F910F91FF90EF90DF90CF900C9410
:1004C000E10140E0682F8BE591E00C940E02CF93A0
:1004D000DF93613029F090916A01986090936A01EE
:1004E00060936E0110926F0190E49093700180937D
:1004F0007101805C8093720180915F010E9487008E
:10050000809160018F3F11F00E948700809161010E
:100510000E948700CBE5D1E09E012B5531408091B0
:100520006A0184FD0AC084E090E02196281739070B
:100530003CF48E810E948700EFCF88E090E0F5CFF9
:100540008BE39DE00197F1F760E080915F010E94ED
:10055000D30060E0809161010E94D300809160012E
:100560008F3F19F060E00E94D30080916A0184FD02
:1005700039C063E08BE591E00E94E101CBE4D6E471
:10058000CE010197F1F763E08BE591E00E94E10174
:100590002197F1F763E08BE591E00E94E10183E5AB
:1005A00092E00197F1F762E08BE591E00E94E101B2
:1005B00080916A0180620E94610284E080936B01F5
:1005C0008CE00E94610281E00E9461028BE39FE166
:1005D0000197F1F782E080936C0186E0DF91CF9183
:1005E0000C94610280620E9461028BE496E40197A0
:1005F000F1F780916A0180620E94610283E592E0D6
:100600000197F1F780916A0180620E946102D0CF68
:1006100041E00E940E0281E090E008951F920F9247
:100620000FB60F9211242F933F938F939F93AF9305
:10063000BF938091530190915401A0915501B091C5
:1006400056013091520123E0230F2D3758F50196C2
:10065000A11DB11D20935201809353019093540129
:10066000A0935501B0935601809157019091580184
:10067000A0915901B0915A010196A11DB11D80931D
:10068000570190935801A0935901B0935A01BF911B
:10069000AF919F918F913F912F910F900FBE0F902F
:1006A0001F90189526E8230F0296A11DB11DD2CFE9
:1006B000789484B5826084BD84B5816084BD85B53D
:1006C000826085BD85B5816085BD80916E00816049
:1006D00080936E00109281008091810082608093EF
:1006E00081008091810081608093810080918000F1
:1006F0008160809380008091B10084608093B1001C
:100700008091B00081608093B00080917A00846015
:1007100080937A0080917A00826080937A00809141
:100720007A00816080937A0080917A00806880935B
:100730007A001092C10064E084E10E946702E1E067
:1007400080916E018111E0E0E195F0E0E55AFE4F05
:10075000848980680E9461028CE091E00E947A01A5
:1007600011E4C0E0D0E084EFC82EDD24D394B12C96
:1007700000E0E12CF12C10937C0080917A008064E1
:1007800080937A0080917A0086FDFCCF809178007A
:1007900060917900762F682F072E000C880B990B3B
:1007A0000E94FE05762E872E982EA92E2B2D302FF7
:1007B000A7010E94AE06181624F4B72C082DE92CC8
:1007C000FA2C61E070E080E090E00E94440181E05A
:1007D000C81AD10881F62AE038E240EA5BE36B2DC3
:1007E000702FC7010E94B30620E030E040E250E4E1
:1007F0000E94E90422E03BE247E85DE30E945B05DA
:1008000023EF34E045EB5FE30E945B056B017C0165
:10081000E0916E01E33040F5E150F0E0E55AFE4F23
:10082000848980680E9461028DE291E00E947A01D1
:10083000A7019601C701B6010E9420078823B1F0E5
:100840008BE391E00E947A0187E491E00E947A01B3
:1008500064EF71E080E090E00E944401209709F489
:1008600082CF0E9400007FCFE2E0D7CF4601570140
:10087000E894B7F82FEF3FEF4FE75FE7C501B4010A
:100880000E94200781110DC02FEF3FEF4FE75FE778
:10089000C501B4010E94560518161CF48FE391E0BF
:1008A000D1CF2FEF3FEF4FE75FE4C701B6010E94C2
:1008B000AE0618161CF483E491E0C4CF2FEF3FEF8F
:1008C0004FE75FECC701B6010E94560587FDF3CFE5
:1008D00020E030E0A901C701B6010E94560587FF5C
:1008E0000AC041E06DE28BE591E00E940E02F7FA4A
:1008F000F094F7F8F0942AE037ED43EA5BE3C701A0
:10090000B6010E94EA044B015C010E94CD056B0117
:100910007C010E94FC059B01AC01C501B4010E9451
:10092000E9044B015C014AE0C701B6010E9487015E
:1009300041E06EE28BE591E00E940E0220E030E0A3
:1009400040E251E4C501B4010E94B3064B015C01D1
:100950000E94CD056B01F12CE12C4AE0C701B601E4
:100960000E948701C701B6010E94FC059B01AC01F2
:10097000C501B4010E94E90420E030E040E251E406
:100980000E94B3060E94CD0590E080E04AE00E94FC
:1009900087015ACFEBE5F1E01382128284E091E007
:1009A000918380838DE084838FEF85838CE08683C1
:1009B0008BE087838AE0808789E0818788E082876F
:1009C0001386148615861686178661E080E10C94DE
:1009D00067025058BB27AA270E9401050C94740691
:1009E0000E94660638F00E946D0620F039F49F3FA1
:1009F00019F426F40C9463060EF4E095E7FB0C94CE
:100A00005D06E92F0E94850658F3BA17620773073F
:100A10008407950720F079F4A6F50C94A7060EF448
:100A2000E0950B2EBA2FA02D0B01B90190010C01FE
:100A3000CA01A0011124FF27591B99F0593F50F416
:100A4000503E68F11A16F040A22F232F342F44276E
:100A5000585FF3CF469537952795A795F040539566
:100A6000C9F77EF41F16BA0B620B730B840BBAF036
:100A70009150A1F0FF0FBB1F661F771F881FC2F7A1
:100A80000EC0BA0F621F731F841F48F487957795B5
:100A90006795B795F7959E3F08F0B0CF9395880F6F
:100AA00008F09927EE0F9795879508950E943906CB
:100AB00008F481E008950E946F050C9474060E946A
:100AC0006D0658F00E94660640F029F45F3F29F059
:100AD0000C945D0651110C94A8060C9463060E94B8
:100AE000850668F39923B1F3552391F3951B550BB4
:100AF000BB27AA2762177307840738F09F5F5F4FF1
:100B0000220F331F441FAA1FA9F335D00E2E3AF02F
:100B1000E0E832D091505040E695001CCAF72BD047
:100B2000FE2F29D0660F771F881FBB1F2617370798
:100B30004807AB07B0E809F0BB0B802DBF01FF27CA
:100B400093585F4F3AF09E3F510578F00C945D0644
:100B50000C94A8065F3FE4F3983ED4F3869577950E
:100B60006795B795F7959F5FC9F7880F911D969583
:100B7000879597F90895E1E0660F771F881FBB1FDF
:100B8000621773078407BA0720F0621B730B840B8C
:100B9000BA0BEE1F88F7E09508950E948D0688F045
:100BA0009F5798F0B92F9927B751B0F0E1F0660F31
:100BB000771F881F991F1AF0BA95C9F714C0B13072
:100BC00091F00E94A706B1E008950C94A706672F44
:100BD000782F8827B85F39F0B93FCCF386957795A1
:100BE0006795B395D9F73EF490958095709561958A
:100BF0007F4F8F4F9F4F0895E89409C097FB3EF4B5
:100C000090958095709561957F4F8F4F9F4F992359
:100C1000A9F0F92F96E9BB279395F69587957795D7
:100C20006795B795F111F8CFFAF4BB0F11F460FF97
:100C30001BC06F5F7F4F8F4F9F4F16C0882311F0EF
:100C400096E911C0772321F09EE8872F762F05C003
:100C5000662371F096E8862F70E060E02AF09A959E
:100C6000660F771F881FDAF7880F9695879597F993
:100C70000895990F0008550FAA0BE0E8FEEF16162D
:100C80001706E807F907C0F012161306E407F50780
:100C900098F0621B730B840B950B39F40A2661F0F4
:100CA000232B242B252B21F408950A2609F4A14097
:100CB000A6958FEF811D811D089597F99F6780E8A4
:100CC00070E060E008959FEF80EC089500240A949E
:100CD0001616170618060906089500240A94121617
:100CE0001306140605060895092E0394000C11F44A
:100CF000882352F0BB0F40F4BF2B11F460FF04C0F7
:100D00006F5F7F4F8F4F9F4F089557FD9058440F4F
:100D1000551F59F05F3F71F04795880F97FB991F5A
:100D200061F09F3F79F08795089512161306140617
:100D3000551FF2CF4695F1DF08C0161617061806A4
:100D4000991FF1CF86957105610508940895E8947F
:100D5000BB2766277727CB0197F908950E943906AC
:100D600008F48FEF08950E94C6060C9474060E9442
:100D7000660638F00E946D0620F0952311F00C9461
:100D80005D060C94630611240C94A8060E94850647
:100D900070F3959FC1F3950F50E0551F629FF001CE
:100DA000729FBB27F00DB11D639FAA27F00DB11DE7
:100DB000AA1F649F6627B00DA11D661F829F222770
:100DC000B00DA11D621F739FB00DA11D621F839FF7
:100DD000A00D611D221F749F3327A00D611D231FCD
:100DE000849F600D211D822F762F6A2F11249F571B
:100DF00050409AF0F1F088234AF0EE0FFF1FBB1F1E
:100E0000661F771F881F91505040A9F79E3F5105DC
:100E100080F00C945D060C94A8065F3FE4F3983EC6
:100E2000D4F3869577956795B795F795E7959F5F86
:100E3000C1F7FE2B880F911D9695879597F9089518
:100E40000E943906880B990B0895A1E21A2EAA1B5D
:100E5000BB1BFD010DC0AA1FBB1FEE1FFF1FA2176A
:100E6000B307E407F50720F0A21BB30BE40BF50B67
:100E7000661F771F881F991F1A9469F760957095F0
:100E8000809590959B01AC01BD01CF010895EE0FB7
:0E0E9000FF1F0590F491E02D0994F894FFCF18
:100E9E00000000000803A6007701760120204143E0
:100EAE002043555252454E542052454144455220FE
:100EBE002020202020202020202020200020202044
:100ECE0043757272656E74203D20006E616E00690E
:100EDE006E66006F766600412020202020202020A4
:020EEE002000E2
:00000001FF
